:020000040800F2
:10000000600A00206D010008710300086903000800
:100010006D030008430200081908000800000000F2
:10002000000000000000000000000000C9060008F9
:100030004702000800000000A5060008B5070008F8
:100040008701000887010008870100088701000870
:100050008701000887010008870100088701000860
:100060008701000887010008870100088701000850
:100070008701000887010008870100088701000840
:100080008701000887010008870100088701000830
:100090008701000887010008870100088701000820
:1000A0008701000887010008870100088701000810
:1000B0008701000887010008870100088701000800
:1000C00087010008870100088701000887010008F0
:1000D00087010008870100088701000887010008E0
:1000E00087010008870100088701000800F002F876
:1000F00000F02CF80AA090E8000C82448344AAF196
:100100000107DA4501D100F021F8AFF2090EBAE893
:100110000F0013F0010F18BFFB1A43F0010318473B
:100120005824000068240000002300240025002635
:10013000103A28BF78C1FBD8520728BF30C148BF4A
:100140000B6070471FB51FBD10B510BD00F044F81F
:100150001146FFF7F7FF00F095FE00F062F803B4D8
:10016000FFF7F2FF03BC00F065F800000948804784
:1001700009480047FEE7FEE7FEE7FEE7FEE7FEE789
:10018000FEE7FEE7FEE7FEE704480549054A064BA1
:1001900070470000B9070008ED0000086004002067
:1001A000600A00206006002060060020704770474B
:1001B000704710B500F008F8006810BD10B504468F
:1001C00000F002F8046010BD0048704700040020F1
:1001D00000487047000400207546FFF7F9FFAE465F
:1001E00005006946534620F00700854618B020B543
:1001F000FFF7CAFFBDE820404FF000064FF00007B0
:100200004FF000084FF0000B21F00701AC46ACE8BE
:10021000C009ACE8C009ACE8C009ACE8C0098D462B
:10022000704710B50446AFF300802046BDE810408B
:10023000FFF795BF01491820ABBEFEE7260002007C
:10024000704700BFFEE770472DE9F04102460025E8
:100250000026002000230024002791F803C00CF0A2
:100260000F0591F803C00CF0100CBCF1000F03D087
:1002700091F802C04CEA050591F800C0BCF1000FEE
:1002800031D0146800202BE04FF0010C0CFA00F381
:10029000B1F800C00CEA03069E4220D183004FF063
:1002A0000F0C0CFA03F7BC4305FA03FC4CEA0404F8
:1002B00091F803C0BCF1280F06D14FF0010C0CFAE5
:1002C00000FCC2F814C00AE091F803C0BCF1480F6A
:1002D00005D14FF0010C0CFA00FCC2F810C0401C14
:1002E0000828D1D31460B1F800C0BCF1FF0F34DD91
:1002F000546800202EE000F1080C4FF0010808FAC5
:100300000CF3B1F800C00CEA03069E4221D1830031
:100310004FF00F0C0CFA03F7BC4305FA03FC4CEA50
:10032000040491F803C0BCF1280F05D100F1080CBA
:1003300008FA0CF8C2F8148091F803C0BCF1480F19
:1003400007D100F1080C4FF0010808FA0CF8C2F8C8
:100350001080401C0828CED35460BDE8F0810AB15B
:10036000016100E04161704700BFFEE700BFFEE7AA
:100370007047000070B5002410E00021204600F016
:10038000ADF8002506E00020064901EBC4114855F0
:10039000681CC5B2802DF6DB601CC4B2082CECDBF7
:1003A00070BD00000000002070B50B46C41700EBC4
:1003B0005474E4100B4D05EBC414E45C0246C517FD
:1003C00000EB5575ED10A0EBC5060125B5402C439B
:1003D0000146C51700EB5575ED10024E06EBC5152D
:1003E000EC5470BD0000002038B5002406E0002564
:1003F00000E06D1CB5F57A7FFBD3641CB4F57A7F01
:10040000F5D30121082000F04FF914208DF80300E6
:1004100003208DF802004FF48070ADF800006946AB
:100420000848FFF711FF4FF40070ADF8000069466F
:100430000448FFF709FF012000F0FCF8012000F05C
:1004400005F938BD000C014070B50546002411E0E7
:1004500080212141294009B1012100E00021084605
:1004600000F0F4F8012000F0E5F8002000F0E2F8D8
:10047000601CC4B2082CEBDB012000F0DBF800208C
:1004800000F0D8F870BD10B5012000F0DFF80120B1
:1004900000F0D0F8002000F0D9F8002000F0CAF8F1
:1004A00010BD10B5002000F0D1F8012000F0C2F816
:1004B000012000F0CBF810BD10B5FFF795FF002428
:1004C00005E00549085D00F0CDF8601CC4B2172CAA
:1004D000F7D3FFF74FFF10BDBC19000870B50546F4
:1004E0000C4645F0B00000F0BDF8102141EA1410B0
:1004F00000F0B8F804F00F0000F0B4F870BD000090
:100500002DE9F0470D4616469C46089F002169E0FC
:10051000002263E003464FEAE07800EB587801EBF5
:10052000E808DFF8D89009EBC81805EB020918F8BD
:10053000098004464FEAE07900EB59794FEAE9096E
:10054000A0EBC90901FB062A17F80AA00AFA09FA62
:1005500048EA0A084FEAE07900EB597901EBE9092A
:10056000DFF898A00AEBC91905EB020A09F80A801E
:100570004FEAE07800EB58784FEAE80808F1010804
:100580008844DFF8789009EBC81805EB020918F8E1
:1005900009804FEAE07900EB59794FEAE909A0EBCD
:1005A000C909C9F1080901FB062A17F80AA04AFA85
:1005B00009FA48EA0A084FEAE07900EB59794FEA6C
:1005C000E90909F101098944DFF830A00AEBC919EA
:1005D00005EB020A09F80A80531CDAB2B24299DB31
:1005E0004A1CD1B2ACF10102D31702EB53730124C0
:1005F00004EBE3038B428BDCBDE8F08700000020B6
:1006000070B5002411E000212046FFF767FF0025A8
:1006100007E0074901EBC411485D00F033F8681C9E
:10062000C5B2802DF5DB601CC4B2082CEBDB70BDBD
:100630000000002010B5044622464FF480710248A5
:10064000FFF78DFE10BD0000000C014010B5044600
:1006500022464FF400710248FFF781FE10BD0000F2
:10066000000C014010B50446FFF70DFF7820FFF79E
:10067000EBFE0020FFF7E8FE2046FFF7E5FEFFF760
:1006800010FF10BD10B50446FFF7FDFE7820FFF700
:10069000DBFE4020FFF7D8FE2046FFF7D5FEFFF730
:1006A00000FF10BD7047000029B1064A926902435D
:1006B000044B9A6104E0034A92698243014B9A61B8
:1006C0007047000000100240704710B500F002F8BB
:1006D00010BD00000CB50020019000903348006868
:1006E00040F480303149086000BF3048006800F4B1
:1006F000003000900198401C0190009818B90198B2
:10070000B0F5A06FF1D12948006800F4003010B1B5
:100710000120009001E0002000900098012843D1C2
:100720002348006840F0100021490860084600682E
:1007300020F0030008600846006840F002000860EE
:100740001A484068194948600846406848600846A9
:10075000406840F4806048600846406820F47C109F
:1007600048600846406840F4E81048600846006861
:1007700040F08070086000BF0C48006800F0007016
:100780000028F9D00948406820F003000749486074
:100790000846406840F00200486000BF03484068D7
:1007A00000F00C000828F9D10CBD00000010024038
:1007B000002002407047000010B51348006840F068
:1007C00001001149086008464068104908400E4978
:1007D0004860084600680E4908400B490860084612
:1007E000006820F4802008600846406820F4FE007D
:1007F00048604FF41F008860FFF767FF4FF000600C
:100800000449086010BD0000001002400000FFF81D
:10081000FFFFF6FE08ED00E000BFFEE7490050EAEA
:10082000C12018BF04204A0D18BF40F0010040F25B
:10083000FF72B2EB515F08BF40F00200012808BF11
:10084000052070472DE9F74F144694B00021C4E904
:1008500002111599079121F00045C9498D4206DC26
:100860001599C4E9000117B00020BDE8F08FC54913
:10087000DFF814A3A9423CDD0799C44E0029C44FF8
:10088000C44A1599534619DD00F036FF554506D088
:10089000C14AC24B00F030FFC4E900010AE04FF04A
:1008A000D352BE4B00F028FF32463B4600F024FFF7
:1008B000C4E9000117B00120BDE8F08F00F082FB11
:1008C000554506D0B44AB54B00F07CFBC4E90001A5
:1008D0000AE04FF0D352B14B00F074FB32463B4676
:1008E00000F070FBC4E9000117B04FF0FF30BDE825
:1008F000F08FAB49A942159978DB21F0004183467E
:100900008846A84AA84B00F0EDFD0022A74B00F056
:1009100059FB00F05FFD099000F0B9FD06460F4657
:100920009C4A534600F0DEFD43465A4600F0D8FE8E
:1009300080468A46984A994B3046394600F0D2FDA7
:100940002A0D01250B924246534600F0C9FE032DA5
:10095000C4E9000139D00B98C1F30A51401A05EBE4
:1009600045111139814230DA9148C346784400EB91
:100970000510CDF80CA00C90D0E900233046394684
:1009800000F0B0FD02460B460491069058460399CC
:1009900000F0B2FE80468A4602460B46584603994E
:1009A00000F0AAFE049B069A00F0A6FE83460C986F
:1009B00003913946D0E90223304600F093FD5A46B0
:1009C000039B00F099FE6D1CBDE707980028A2BFAD
:1009D000099817B0BDE8F08F616881F0004161604F
:1009E000099817B04042BDE8F08FFFE7844615989C
:1009F000C1F31301C0F30A50A0F2F5304FEA6018BA
:100A000000F01F06C6F1200013900020069007900A
:100A100041F4801E05206D4676B1664A08EB000160
:100A20007A4452F8213002EB8101B3404A681399AD
:100A300022FA01F1194305E05F4908EB000279440D
:100A400051F82210A1FB0E27A1FB0C131A449A4265
:100A500034BF0123002303EB070A05EB8003D3E92E
:100A600001B70F448F4234BF0121002193448B44CE
:100A700011B1934502D903E0934501D2012100E071
:100A80000021C3E901B7514445F82010011EA0F12F
:100A90000100C1DC0298059F00F10050800F129008
:100AA0000298DDE90356800000F0F1FC83462846F9
:100AB0000D9100F003FD6FF01D0200F039FFCDE94C
:100AC0000E01304600F0FAFC6FF03D0200F030FFFE
:100AD00080468A46384600F0F1FC6FF05D0200F077
:100AE00027FF074642465346119100F06BFADDE9B5
:100AF0000E2300F067FA5A460D9B00F063FA0025BA
:100B00000E465A4628460D9B00F0F6FDDDE90E2301
:100B100000F0F2FD4246534600F0EEFD3A46119BCE
:100B200000F0DEFDDFF898A0244A534600F0DAFC1E
:100B300007468846234A244B3146284600F0D2FC1B
:100B40003A46434600F03EFA074688464FF0A84230
:100B500053463146284600F0C5FC3A46434600F06D
:100B600031FA159A12F0004F04D0129A81F0004128
:100B700052421292C4E90001129817B0BDE8F08FFA
:100B8000FB21E93F7CD90240FB21F93F7370032E22
:100B90008A19A33B000040543163621A61B4D03D0E
:100BA000FB21394183C8C96D305FE43F0000E03F5D
:100BB000181B0000941A0000761A0000182D4454E7
:100BC000FB21F93D3326A611460B113C2DE9FF4DC3
:100BD00021F0004807460C46B8F1795F08DA00F0CA
:100BE000F9FB002801BF0020324904B0BDE8F08DB8
:100BF0003A4623461046194600F074FC0546024664
:100C00002D480E460B460621784400F05DF82A4632
:100C1000334600F067FCDDE9022382468B46384606
:100C2000214600F05FFC04460F4652465B462846CC
:100C3000314600F057FC22463B4600F05DFD07467A
:100C40008A464FF0FF322846314600F071FE1B4ABB
:100C500090450ADA3A46534600F04EFD04B00022B1
:100C6000BDE8F04D134B00F03BBD154A4245A8BF0F
:100C7000A8F500154FF00004B8BF124D22462B46D0
:100C800000F03AFD0646884622462B4600200949D8
:100C900000F032FD04460D463A4653463046414682
:100CA00000F02AFD04B022462B46BDE8F04D00F0CE
:100CB00017BD00000000F03F4C1800003333D33F55
:100CC0000000E93F0000D23F2DE9F0414F1E00EB4C
:100CD000C7010446D1E9000115461E4637F0060259
:100CE0000DD02A46334600F0FDFB7F1E04EBC70300
:100CF000D3E9002300F066F937F00602F1D1022FA4
:100D000025D0042F13D0062F18BFBDE8F0812A4646
:100D1000334600F0E7FBD4E90A2300F053F92A46F2
:100D2000334600F0DFFBD4E9082300F04BF92A46F4
:100D3000334600F0D7FBD4E9062300F043F92A46F6
:100D4000334600F0CFFBD4E9042300F03BF92A46F8
:100D5000334600F0C7FBD4E9022300F033F92A46FA
:100D6000334600F0BFFBD4E90023BDE8F04100F0BA
:100D700029B900002DE9FF4D054621F0004084B05F
:100D80000C46B0F1795F0BDA2846FFF747FD0428DF
:100D900008BF00F06FF8284608B02146BDE8F08D86
:100DA0002A460B46104600F09DFB06460F462A4693
:100DB000234600F097FB804626488A4632463B464B
:100DC00005217844FFF780FF83461098029160B3B5
:100DD000214A224B4046514600F084FBCDE90001F8
:100DE0005A4640465146029B00F07CFB82468846AC
:100DF000DDE906014FF0FF3200F09AFD524643460E
:100E000000F07AFC32463B4600F06CFBDDE906233D
:100E100000F072FCDDE9002300F06EFC08B02A4609
:100E20002346BDE8F04D00F05BBC0B465A46304609
:100E3000394600F057FB084A084B00F0C3F8424619
:100E4000534600F04FFB08B02A462346BDE8F04D5C
:100E500000F0B8B88A170000495555555555C5BF1B
:100E6000012200F065BD002213461046114600F035
:100E700059B90000024A0020110700F059BD0000D6
:100E800001FDFFFF88B0FFF717FB21480F231A462B
:100E9000002100900846FFF733FB4FF0000A30E0D6
:100EA000504600F00BFB804600221A4B00F03AF946
:100EB00000224FF08043CDE9000100F013FB164AF9
:100EC000164BCDE9020100F00DFB064600F02AF8B2
:100ED0000022134BCDE9040100F004FB0022104B6B
:100EE000CDE9060100F06EF8044600F0A3FA00F028
:100EF000FF0B51465846FFF757FA0AF1040000F07D
:100F0000FF0ABAF1800FCBDBFFF77AFB00BFFEE7E9
:100F100039240008000060406E861BF0F92109406A
:100F20000000404000B5254B21F0004287B09A42B6
:100F300003DC0022134600922BE0214B9A4208D199
:100F400040B94FF00100FFF739F9FFF78CFF07B008
:100F500000BD03DBFFF784FF07B000BD02AAFFF767
:100F600071FC10F003014FF001000DD0012914D0E5
:100F700002291AD00DF1080C9CE80F00FFF726FE9D
:100F800007B081F0004100BD0DF1080C00909CE815
:100F90000F00FFF7EFFE07B000BD0DF1080C9CE855
:100FA0000F00FFF713FE07B000BD0DF1080C009015
:100FB0009CE80F00FFF7DEFEE2E70000FB21E93FBF
:100FC0000000F07F10B591EA030F48BF83F00043A3
:100FD00000F19A83841A71EB030C05D2121943EBCA
:100FE0000C03001B61EB0C01DFF824E14FEA115404
:100FF000A4EB135C1EEA430F18BF9EEA445F73D054
:1010000023EA0E03DCF1200E21EA045143F480139D
:1010100032D322FA0CFE10EB0E0023FA0CFE41EB49
:101020000E01CCF1200E03FA0EFE10EB0E0051F172
:101030000001B1F5801FCCF1200E32D201EB04513A
:1010400012FA0EF2BDE8104058BF7047401C38BF7E
:101050005FEA420218BF7047002814BF20F0010069
:1010600041F100014FEA410313F5001F38BF7047FB
:10107000A1F1C04100F02EBB012A43EB0302ACF109
:10108000200CDCF11F0E32BF4FF0000E23FA0CF3E0
:1010900010EB030041EB0451B4EB115FD0D0A1EB96
:1010A000045101F5801149085FEA300001EB045159
:1010B0000ED350F1000038BF12FA0EFE08D1BDE881
:1010C0001040C9E7401C38BF5FEA4202CAD1C3E7FB
:1010D000BDE810404FEA410313F5001F38BF7047C9
:1010E000A1F1C04100F0F6BA9EEA445F08D011EACF
:1010F0005E0FBDE8104004BF01F0004100207047C2
:10110000BDE8104070B500F097FA00BF64FBBE3E2A
:101110000000E0FF02494FF0000000F0D7BB00BF25
:101120000000F87F2DE9C04130B4DFF8A0C23CEAEE
:10113000111418BF3CEA131400F0EC8081EA030597
:101140001CEA111444EAD57418BF1CEA131500F008
:10115000C780A4EB05044FF0004545EAC12145EAEC
:10116000C32341EA505143EA525304F17F74994238
:1011700004F500344FEAC0204FEAC22208BF904273
:1011800000F09C804FEA13650FF24016765D4FEA3F
:10119000134506FB05F7C7F1807706FB07F74FEA13
:1011A000D737A7FB03687642C8F58038A7FB06CE81
:1011B00038BFA8F1010807FB08E64FF0000EA6FBB8
:1011C000028CE6FB03CEDCF1000CCEF1004E38BF02
:1011D000AEF1010EA6FB0C584FF000074FF00005D2
:1011E000E6FB0E87A1FB08C6A0FB07CE16EB0E069A
:1011F00045F10005E1FB076515F1E04E7EBFA4F562
:1012000080345FEA46066D4116F1800745F100051E
:101210004FEA17274FEA066647EA0567A6F1DE465A
:10122000B6F1805F4FEA15251FD9384624F0010C2E
:1012300005EBC471BCF1FE6F01EB0C1102D8F0BCE0
:10124000BDE8008124425CBF01F5801E9EEAC47F98
:1012500002D4F0BCBDE80081244238D4F0BCA1F136
:10126000C041BDE8004100F035BA4FEAD22242EA5F
:1012700043524FEAD323A7FB02864FEAD02040EA2D
:10128000415007FB03661EEA0E0F4FEAD12105FB12
:10129000026658BFA6EB0056B6EB00564FEA520E58
:1012A0004EEAC37E18EB0E0E56EB530EBDD518EB6F
:1012B00002085E417F1C55F10005B6E74FF480152A
:1012C0004FF000074FF000064FF00008ADE7F0BC0C
:1012D0004FF0000001F1C04101F00041BDE8008184
:1012E00011EA0C1F0CEA131500D00CE013EA0C1FD6
:1012F00000F025804FF00000F0BC81EA030101F00E
:101300000041BDE80081F0BCBDE8004181EA030175
:1013100000F0E0B9F0BCBDE8004170B500F08CF918
:10132000097EFC3E00F007B881EA03014FF000009F
:1013300001F00041704781EA030100F0CBB9F0BC35
:10134000BDE800414FF0000021497047FFFDFBF967
:10135000F7F5F4F2F0EEEDEBE9E8E6E4E3E1E0DEE8
:10136000DDDBDAD8D7D5D4D3D1D0CFCDCCCBCAC85A
:10137000C7C6C5C4C2C1C0BFBEBDBCBBBAB9B8B781
:10138000B6B5B4B3B2B1B0AFAEADACABAAA9A8A874
:10139000A7A6A5A4A3A3A2A1A09F9F9E9D9C9C9B42
:1013A0009A999998979796959594939392919190ED
:1013B0008F8F8E8E8D8C8C8B8B8A8989888887877E
:1013C0008685858484838382828181800000FF07F3
:1013D0000000F87F4FEA41034FEA5353A3F58063BF
:1013E000D3F11E03C8BFD3F1210C0CDD4FF0004236
:1013F00042EAC12242EA505232FA03FC8CEAE17C12
:10140000ACEBE1707047102BC4BF0020704703F5B0
:10141000787CBCF1FF3F04D06FF0004282EA2100EB
:10142000704770B500F008F9499224800020704799
:10143000F2E700004FEA1153A3F58063D3F11E03D6
:10144000A8BFD3F1200C08DB4FF0004242EAC122D2
:1014500052EA505232FA03F0704709420BD4102B73
:10146000C4BF0020704703F5787CBCF1FF3F05D076
:101470004FF0FF3070474FF00000704770B500F03C
:10148000DBF800BF4992248000207047F0E710F09D
:10149000004248BF4042B0FA80F310FA03F10AD08C
:1014A000C3F11D0303F580634FEA415002EB035281
:1014B00002EBD12170474FF000007047B0FA80F383
:1014C00010FA03F10AD0C3F11D0303F580634FEA5C
:1014D00041504FEA035202EBD12170474FF0000018
:1014E00070470000DFF848C170B51CEA111E1EBF2E
:1014F0001CEA13159EEA0C0F95EA0C0F00F06F80A2
:1015000081EA030423EA4C134EEAD47E21EA4C110B
:1015100041F4801143F48013AE44A1FB024CA0FBC4
:101520000365AEF17F7E361955EB0C05A1FB034C2C
:101530004CF10003A0FB021C16EB0C06654153F1B5
:101540000003094218BF46F0010613F4007F0BD1D7
:101550004FEA03314FEA0530340341EA155140EABE
:1015600016506FF003020AE04FEAC3214FEAC5208C
:10157000F40241EA555140EA56506FF0020202EB84
:101580002E4201EB025585EACE710AD05FEA440C87
:1015900018BF24F0004450F1000041F1000120EA9E
:1015A000D47040F2FE7C624500D270BDA84214BFE8
:1015B0004FF080444FF04044002E08BF0024BEF19D
:1015C000806FA8BFA1F1C041BDE8704080F2828069
:1015D0004FF0000001F1C04101F0004170479EEA68
:1015E0000C0F0CEA131518BF95EA0C0F06D04FF03C
:1015F000000081EA030E0EF0004170BD00F01CF8FF
:101600008900013E00F007B800F009B84FEA430C2A
:101610005FEA5C5C08D081EA030100F05BB84FEA46
:10162000410C5FEA5C5CF6D14FF000000149704765
:101630000000FF070000F87F0EF1020E2EF0030EEF
:101640005EF8046B364205D4012A43EB030515F519
:10165000001F12D8012841EB010C1CF5001F0CD80B
:101660000ED14FEAD17C15F5001F0CEB4C0C0CF1A0
:10167000020C08BF4CEBD37C04E04FF0080C01E0F7
:101680004FEAD37C0CEB4C0526FA05F606F007066C
:10169000B6F1040C06D20EEB860CBDE870404CF09F
:1016A000010C6047DFE80CF0090B02024FF000412B
:1016B0004FF00000A1F5002170BD19461046012829
:1016C00051EB010418BFD4F5001484BF002001F0D1
:1016D000004170BD0808A0F500114FEA31017047C4
:1016E00091EA030F10B581F000413FF573AC83F030
:1016F000004300F009B8000010B591EA030F48BF9D
:1017000083F000433FF566AC841A71EB030C07D2FB
:1017100012198CF0004C43EB0C03001B61EB0C0125
:10172000DFF8A4E14FEA1154A4EB135C1EEA430F67
:1017300018BF9EEA445F00F0B08023EA6E03524275
:1017400021EA0451C3EB6E0338BF5B1EDCF1200EAF
:1017500025D322FA0CFE10EB0E0043FA0CFE41EBEF
:101760000E01CCF1200E03FA0EFE10EB0E0051F12B
:101770000001CCF1200E29D412FA0EF201EB045133
:10178000BDE8104058BF7047401C1CBFB2F1004F6D
:10179000704700280CBF491C20F00100704712EB75
:1017A000020E43EB030218BF4FF0010E4EEA420255
:1017B000ACF1200CDCF11E0E54D943FA0CFE10EBF8
:1017C0000E0051F1FF31CCF11E0ED5D50EF1010EF8
:1017D00012FA0EFE404141EB010101EB445C5FEA6D
:1017E0005C5C10D910EBDE7001EB045138BFBEF128
:1017F000004FBDE8104018BF704700280CBF491CBF
:1018000020F00100704730D24FEAD42C11F50011BE
:1018100024F400641BD0B1FA81F20B3AA41AA41E7E
:10182000D2F12003914030FA03F31943904001EBC9
:10183000CC71002C01EB0451BDE81040A8BF7047EB
:1018400001F1C0414FF0000001F000417047B0FAD3
:1018500080F310FA03F100D110BDE41A173C4805DB
:10186000C90AE4E701EB045110BD491001EB045132
:10187000BDE810404FEA300002E04FF00001704731
:101880004A0008BF0042F8D0B2F5001F28BF7047D9
:1018900001F000414FF0000070479EEA445F07D01E
:1018A00011EA5E0FBDE8104004BF00210020704720
:1018B000BDE8104070B5FFF7BFFE00BF40DFF63E49
:1018C00083F00041104670470000E0FF0CF00F036A
:1018D000092B08BF082000F059800A2B0BD0082BD9
:1018E00018BF704708BF1CF0400F0AD04FF000002F
:1018F0004FF0000170471CF0400F18BF4FF0004040
:1019000070471CF0100F08D020F0704300F07F42A9
:1019100042EAD3014FEA4370704700F0604021F083
:101920007F4242EA000201F07F4040EA7270704755
:101930004FF0FF0C4CF4E06C1CEA11531CBF9CEA06
:10194000030C9445C2BFDA4201EB02517047002BF1
:101950000DD0BCF1000F0FD0002A01F00041A4BF50
:1019600041F0E04141F07F614FF00000704701F02D
:1019700000414FF00000704750EA01334FF09B0CDC
:1019800018BF4CF0806C7FF4C5AB70471CF4801F0F
:1019900011D01CF4E02F03D06FEACC31490070471E
:1019A0004FF04050EFF3008222F0704242EA000212
:1019B00082F3008870474FF000007047AED580A8D2
:1019C0003FD30040A1C8DA1281CFD9F1DB30A4A601
:1019D0008D14AF00000000000000000000000000B7
:1019E000000000000000F80000000000000033309C
:1019F00000000000160E00160E000000000000009F
:101A000000000040C07840C0784000043F04043F1C
:101A1000040400007088FC08300000001820FF213A
:101A20001E0000F008F000E018000000211C031E5A
:101A3000211E0000F00888700000001E21232419D8
:101A4000272110000000160E00000000000000001A
:101A5000000000000000E018040200000000071869
:101A600020400000020418E0000000004020180799
:101A7000000000404080F0804040000202010F0161
:101A8000020200000000F0000000000101011F013F
:101A9000010100000000000000000000B070000024
:101AA0000000000000000000000000000101010132
:101AB00001010100000000000000000030300000C3
:101AC000000000000000008060180400601806019B
:101AD00000000000E010080810E000000F102020B7
:101AE000100F00001010F8000000000020203F2020
:101AF00020000000700808088870000030282422A8
:101B0000213000003008888848300000182020204C
:101B1000110E000000C02010F8000000070424246B
:101B20003F240000F80888880808000019212020B8
:101B3000110E0000E0108888180000000F1120200E
:101B4000110E0000380808C83808000000003F00E7
:101B50000000000070880808887000001C22212105
:101B6000221C0000E010080810E0000000312222D2
:101B7000110F00000000C0C0000000000000303065
:101B8000000000000000C0C0000000000080B07035
:101B9000000000000080402010080000010204083E
:101BA0001020004040404040404000040404040431
:101BB00004040000081020408000000020100804E9
:101BC000020100007048080808F0000000003036EC
:101BD000010000C030C828E810E0000718272423BF
:101BE000140B000000C038E0000000203C2302027B
:101BF00027382008F8888888700000203F2020209F
:101C0000110E00C0300808080838000718202020EE
:101C100010080008F808080810E000203F202020E5
:101C2000100F0008F88888E8081000203F202023C3
:101C300020180008F88888E8081000203F200003DA
:101C4000000000C0300808083800000718202022D3
:101C50001E020008F808000008F808203F210101D2
:101C6000213F20000808F8080800000020203F203D
:101C700020000000000808F8080800C08080807F6D
:101C800000000008F888C028180800203F2001261E
:101C900038200008F8080000000000203F20202025
:101CA00020300008F8F800F8F80800203F003F0056
:101CB0003F200008F830C00008F808203F20000747
:101CC000183F00E01008080810E0000F1020202046
:101CD000100F0008F808080808F000203F21010153
:101CE000010000E01008080810E0000F1824243854
:101CF000504F0008F8888888887000203F20000333
:101D00000C30200070880808083800003820212195
:101D1000221C00180808F8080818000000203F20BE
:101D200000000008F808000008F808001F20202024
:101D3000201F000878880000C83808000007380E07
:101D4000010000F80800F80008F800033C0700074D
:101D50003C0300081868808068180820302C0303B2
:101D60002C30200838C800C83808000000203F2068
:101D700000000010080808C8380800203826212074
:101D8000201800000000FE020202000000007F4058
:101D9000404000000C30C0000000000000000106C0
:101DA00038C00000020202FE000000004040407FF8
:101DB00000000000201008040810200000000000AF
:101DC0000000000000000000000000808080808093
:101DD0008080800002040800000000000000000075
:101DE0000000000000808080800000001924222272
:101DF000223F2008F8008080000000003F112020D2
:101E0000110E000000008080800000000E112020D4
:101E1000201100000000808088F800000E112020B2
:101E2000103F200000808080800000001F222222BE
:101E3000221300008080F0888888180020203F202E
:101E40002000000000808080808000006B949494CB
:101E500093600008F8008080800000203F2100008F
:101E6000203F2000809898000000000020203F20A4
:101E7000200000000000809898000000C080808052
:101E80007F000008F8000080808000203F24022DA1
:101E9000302000000808F8000000000020203F204B
:101EA0002000008080808080808000203F20003FD4
:101EB00020003F008080008080000000203F210043
:101EC000203F200000808080800000001F20202014
:101ED000201F00808000808000000080FFA1202063
:101EE000110E000000008080808000000E11202074
:101EF000A0FF80808080008080800020203F212003
:101F000000010000008080808080000033242424B1
:101F1000241900008080E0808000000000001F2065
:101F20002000008080000000808000001F20202012
:101F3000103F20808080000080808000010E3008EB
:101F400006010080800080008080800F300C030C30
:101F5000300F0000808000808080000020312E0E35
:101F6000312000808080000080808080818E701809
:101F700006010000808080808080000021302C22BB
:101F800021300000000000807C0202000000000000
:101F90003F404000000000FF00000000000000FF84
:101FA0000000000002027C800000000040403F0072
:101FB0000000000080404080000080000000000021
:101FC0000101000000000000000000002F000000E0
:101FD000000700070000147F147F1400242A7F2AC2
:101FE0001200231308646200364955225000000095
:101FF00007000000001C224100000041221C0000DC
:1020000014083E08140008083E0808000000A060FC
:1020100000000808080808000060600000002010A8
:10202000080402003E5149453E0000427F40000046
:102030004261514946002141454B31001814127F3D
:1020400010002745454539003C4A49493000017197
:1020500009050300364949493600064949291E0049
:1020600000363600000000563600000008142241F9
:10207000000014141414140000412214080002017A
:10208000510906003E4955592E007C1211127C0060
:102090007F49494936003E41414122007F4141226A
:1020A0001C007F49494941007F09090901003E415F
:1020B00049497A007F0808087F0000417F410000FD
:1020C0002040413F01007F08142241007F404040F2
:1020D00040007F020C027F007F0408107F003E4119
:1020E00041413E007F09090906003E4151215E0041
:1020F0007F091929460046494949310001017F01FC
:1021000001003F4040403F001F2040201F003F4053
:1021100038403F0063140814630007087008070084
:10212000615149454300007F41410000020408100D
:1021300020000041417F00000402010204004040F1
:102140004040400000010204000020545454780034
:102150007F484444380038444444200038444448CC
:102160007F00385454541800087E0901020018A456
:10217000A4A47C007F080404780000447D40000093
:102180004080847D00007F102844000000417F4093
:1021900000007C04180478007C08040478003844AB
:1021A00044443800FC242424180018242418FC007B
:1021B0007C0804040800485454542000043F444060
:1021C00020003C4040207C001C2040201C003C4063
:1021D00030403C004428102844001CA0A0A07C00F3
:1021E0004464544C440000087F41000000007F001C
:1021F000000000417F0800000804081008EFBC8CB4
:1022000000000000000000000000000000000000CE
:10221000000000583800000000000000000000002E
:1022200000E38082000000000000000000000000C9
:102230000000000000000018242418000000000026
:102240000000000000E4BDA000008060F80740200E
:10225000180F08C80808281800010000FF00100C1B
:102260000340807F0001061800E5A5BD001010F0B6
:102270001F10F000808282E2928A86800040221540
:10228000081661000040807F0000000000E4B8965E
:1022900000202020FE2020FF202020FF20202020C2
:1022A000000000007F404047444444474040400015
:1022B00000E7958C00000000FE929292FE929292AE
:1022C000FE0000000008080484621E010001FE02F6
:1022D0000404080800E688910020242424FE232218
:1022E0002020FF20222CA02000000848847F0241EB
:1022F0004020130C142241F800E788B10080642CC0
:10230000342424EC322222322E23A2600000412108
:102310009189874D552525554D81808000E4BDA0CC
:1023200000008060F8074020180F08C80808281827
:1023300000010000FF00100C0340807F0001061820
:1023400000E8928B0004448404EF048444B424AF76
:10235000642404040020100904FF00040C360584E2
:10236000FF04040400E99D99004454547F545444EC
:10237000202827E4342CE0000000FF1555957F004D
:102380000949897F09091F0100E680A100807000CA
:10239000FF08104060504C43405060C000000000F7
:1023A000FF000000FE4242424242FE0000E8B4BA92
:1023B000008044348FA4C4BC8080BCA4A4243C000E
:1023C000000080805F4020100E2020405F800000D1
:1023D00000E6A08B001010D0FF90088868180FE866
:1023E0000808080800040300FF0021110D41817F47
:1023F000010509300000000000FF01010131090959
:102400000909897101010101FFFF808080808080BE
:102410009681808080808080FFFF01818181FD899D
:1024200091A1C1FD81818101FFFF808080809F8813
:102430008482819F80808080FFFF01E111492545D2
:102440000545254911E101FF7F404344485152525F
:102450005251484443407F004C5555555555A53F72
:102460007751C1166CC156BF9015CB19A001FA3E29
:10247000AD529C804F7E92BEC4B1B4BD9EEE213E53
:10248000D43888BEE9FAA8BD00004054FB21F93FCA
:102490003163621A61B4D03D0000601A61B4D03D6E
:1024A0007370032E8A19A33B0000002E8A19A33BE8
:1024B000C14920259A837B390000000000000000FC
:1024C0006E83F9A22915444ED15727FCC0DD34F59F
:1024D000999562DB4190433CAB6351FE61C5BBDE25
:1024E0003A6E24B7E0D24D42EA2E49061C92D10939
:1024F0001CEB1DFE3EA729B1F53582E88444BB2EB6
:1025000026709CE9417E5FB439D69139F439538302
:102510008B5F849C3B28F9BDFF97F81F0F9805DE61
:102520008B112FEF1F6D0A5ACF7E366DB709CB275F
:10253000663F464F2DEA5F9EC7BA27757BF1E5EBF4
:10254000F739073DEA92528AB15FFB6B085D8D1F38
:10255000A6F810111111813FD561C119A0012ABF40
:102560007DFEB157E31DC73EEB9C2B8AE6E55ABEC4
:102570007CD5CF5A3AD9E53D8825000800000020D7
:08258000600A000028010008B8
:04000005080000ED02
:00000001FF
