:020000040800F2
:1000000068060020890100080D070008AD030008FC
:100010008D05000843020008E50C00080000000000
:10002000000000000000000000000000950B000828
:100030004702000800000000710B0008810C000856
:10004000A3010008A3010008A3010008A301000800
:10005000A3010008A3010008A3010008A3010008F0
:10006000A3010008A3010008A3010008A3010008E0
:10007000A3010008A3010008A3010008A3010008D0
:10008000A3010008A3010008A3010008A3010008C0
:10009000A3010008A3010008A3010008A3010008B0
:1000A000A3010008A3010008A3010008A3010008A0
:1000B000A3010008A3010008A3010008A301000890
:1000C000A3010008A3010008A3010008A301000880
:1000D000A3010008A3010008A3010008A301000870
:1000E000A3010008A3010008A301000800F002F822
:1000F00000F03AF80AA090E8000C82448344AAF188
:100100000107DA4501D100F02FF8AFF2090EBAE885
:100110000F0013F0010F18BFFB1A43F0010318473B
:100120004C1800006C180000103A24BF78C878C141
:10013000FAD8520724BF30C830C144BF04680C60ED
:10014000704700000023002400250026103A28BF35
:1001500078C1FBD8520728BF30C148BF0B60704739
:100160001FB51FBD10B510BD00F031F81146FFF7E7
:10017000F7FF00F0B9FD00F04FF803B4FFF7F2FF0E
:1001800003BC00F057F800000948804709480047C1
:10019000FEE7FEE7FEE7FEE7FEE7FEE7FEE7FEE737
:1001A000FEE7FEE704480549054A064B7047000094
:1001B000850C0008ED00000868000020680600209B
:1001C000680200206802002070477047704775463B
:1001D00000F02CF8AE4605006946534620F00700B3
:1001E000854618B020B5FFF7DDFFBDE820404FF091
:1001F00000064FF000074FF000084FF0000B21F011
:100200000701AC46ACE8C009ACE8C009ACE8C009DD
:10021000ACE8C0098D46704710B50446AFF30080C6
:100220002046BDE81040FFF7A8BF00000048704717
:100230000400002001491820ABBEFEE726000200A2
:10024000704700BFFEE7704700EBC001C9004FF0E8
:10025000E0225161002191610521116100BF4FF041
:10026000E021096901F480310029F8D004214FF020
:10027000E022116170472DE9F04102460025002679
:10028000002000230024002791F803C00CF00F0584
:1002900091F803C00CF0100CBCF1000F03D091F8E2
:1002A00002C04CEA050591F800C0BCF1000F31D046
:1002B000146800202BE04FF0010C0CFA00F3B1F8A9
:1002C00000C00CEA03069E4220D183004FF00F0CC1
:1002D0000CFA03F7BC4305FA03FC4CEA040491F85A
:1002E00003C0BCF1280F06D14FF0010C0CFA00FC42
:1002F000C2F814C00AE091F803C0BCF1480F05D160
:100300004FF0010C0CFA00FCC2F810C0401C082889
:10031000D1D31460B1F800C0BCF1FF0F34DD5468D4
:1003200000202EE000F1080C4FF0010808FA0CF351
:10033000B1F800C00CEA03069E4221D183004FF0C1
:100340000F0C0CFA03F7BC4305FA03FC4CEA040457
:1003500091F803C0BCF1280F05D100F1080C08FA90
:100360000CF8C2F8148091F803C0BCF1480F07D113
:1003700000F1080C4FF0010808FA0CF8C2F81080E0
:10038000401C0828CED35460BDE8F081024600200E
:1003900093680B400BB1012000E000207047016121
:1003A00070470AB1016100E04161704700BFFEE79C
:1003B0002DE9FF5F04460E2269463B2000F080F8DD
:1003C0009DF801009DF8001040EA012005B29DF85B
:1003D00003009DF8021040EA012006B29DF80500D6
:1003E0009DF8041040EA012007B29DF809009DF82D
:1003F000081040EA01200FFA80F89DF80B009DF8E4
:100400000A1040EA01200FFA80F99DF80D009DF8CE
:100410000C1040EA01200FFA80FA284600F002FE94
:1004200083464FF08D4100F01BFD2060304600F008
:10043000F9FD83464FF08D4100F012FD60603846B3
:1004400000F0F0FD83464FF08D4100F009FDA06003
:10045000404600F0E7FD83460A4900F001FDE060F8
:10046000484600F0DFFD8346064900F0F9FC2061B4
:10047000504600F0D7FD8346024900F0F1FC606170
:10048000BDE8FF9F0000034310B500F081F8012193
:100490006B2000F064F800216C2000F060F8092166
:1004A000192000F05CF806211A2000F058F800210D
:1004B0001B2000F054F800211C2000F050F810BD63
:1004C0002DE9F04107460E46154600F0EAF8D02027
:1004D00000F0CAF800F0A6F8384600F0C5F800F0C1
:1004E000A1F800F0DEF8D12000F0BEF800F09AF894
:1004F00000240EE000F068F83055681EA04203DDCD
:10050000002000F0A2F802E0012000F09EF8601C3C
:1005100084B2AC42EEDB00F0D2F8BDE8F08170B5F9
:100520000546002400F0BDF8D02000F09DF800F052
:1005300079F8284600F098F800F074F800F0B1F867
:10054000D12000F091F800F06DF800F03DF804467D
:10055000012000F07AF800F0B2F8204670BD70B5C6
:1005600005460C4600F09DF8D02000F07DF800F024
:1005700059F8284600F078F800F054F8204600F0CA
:1005800073F800F04FF800F09AF870BD00BFFEE776
:1005900008B50121082000F0EDFA4FF44061094848
:1005A000FFF7FDFE14208DF803004FF44060ADF816
:1005B000000003208DF8020069460248FFF75BFE49
:1005C00008BD0000000C014070B50024002501208A
:1005D00000F08EF8002000F07DF800BF0EE0012052
:1005E00000F078F800F00EF8012802D180202041B8
:1005F0000543002000F06EF8601CC4B2082CEEDB4E
:10060000284670BD10B500244FF400610448FFF780
:10061000BDFE04460A20FFF717FE204610BD00006D
:10062000000C014010B50024012000F061F800200A
:1006300000F050F8012000F04DF8FFF7E3FF04460A
:10064000002000F047F8204610BD10B504460020F9
:1006500000F040F8204600F04BF8012000F03AF896
:10066000002000F037F810BD70B50546002400BF2B
:1006700011E0002000F02EF880212141294009B12D
:10068000012100E00021084600F032F8012000F0CE
:1006900021F8601CC4B2082CEBDB002000F01AF833
:1006A00070BD10B5012000F023F8012000F012F811
:1006B000002000F01DF8002000F00CF810BD10B56F
:1006C000002000F015F8012000F004F8012000F0EF
:1006D0000FF810BD10B5044622464FF48061034860
:1006E000FFF75FFE0A20FFF7AFFD10BD000C0140D1
:1006F00010B5044622464FF400610348FFF751FE4F
:100700000A20FFF7A1FD10BD000C0140704770B535
:1007100000240EE00021204600F0F3F8002504E05C
:10072000002000F015FA681CC5B2802DF8DB601CB3
:10073000C4B2082CEEDB70BD08B50121082000F022
:1007400019FA14208DF8030003208DF802004FF4ED
:100750008070ADF8000069460A48FFF78CFD4FF441
:100760000070ADF8000069460648FFF784FD0122DD
:1007700011020448FFF715FE012251020148FFF75C
:1007800010FE08BD000C014070B50546002419E0BC
:1007900080202041284008B1012000E000200246CE
:1007A0004FF400710E48FFF7FCFD012211020C48C6
:1007B000FFF7F7FD00224FF480710948FFF7F1FDC4
:1007C000601CC4B2082CE3DB012211020448FFF7CD
:1007D000E8FD00224FF480710148FFF7E2FD70BD93
:1007E000000C014010B5012251020A48FFF7D9FD63
:1007F000012211020748FFF7D4FD00224FF40071D7
:100800000448FFF7CEFD00224FF480710148FFF746
:10081000C8FD10BD000C014010B500224FF400715E
:100820000648FFF7BEFD012211020448FFF7B9FD9B
:10083000012251020148FFF7B4FD10BD000C014038
:1008400070B5002406E0002500E06D1CB5F57A7F48
:10085000FBD3641CB4F57A7FF5D3FFF76DFFAE20B0
:1008600000F066F9D52000F063F9802000F060F90F
:10087000A82000F05DF93F2000F05AF9D32000F0E5
:1008800057F9002000F054F9402000F051F9A12060
:1008900000F04EF9C82000F04BF9DA2000F048F9DA
:1008A000122000F045F9812000F042F9CF2000F03D
:1008B0003FF9D92000F03CF9F12000F039F9DB20B4
:1008C00000F036F9302000F033F9A42000F030F9C0
:1008D000A62000F02DF98D2000F02AF9142000F058
:1008E00027F9AF2000F024F9FFF711FF70BD10B514
:1008F0000246012000E050430B1EA1F10101FAD194
:1009000010BD70B505460C4645F0B00000F010F97A
:10091000102141EA141000F00BF904F00F0000F070
:1009200007F970BD2DE9F04105460E461746721EC7
:10093000D206110E6A1E5206100EFFF7E2FF0024C7
:1009400009E0A7F12001134A02EB0111085D00F054
:10095000FFF8601CC4B2082CF3DB721ED206110E25
:100960006A1E012303EB4202D0B2FFF7CAFF002444
:100970000BE0A7F12001074A02EB011204F1080184
:10098000505C00F0E5F8601CC4B2082CF1DBBDE857
:10099000F08100007A1300082DE9FF4F83B00F4665
:1009A0001446DDF840800021204600F067FB04D2A9
:1009B0000FF2B00A84F0004401E00FF2AC0A4146A5
:1009C0000A20FFF794FF8146484600F043FB0146AA
:1009D00002904FF07C5000F043FA8346214600F02D
:1009E000D1F90446204600F0FDFA0546484600F0DD
:1009F00031FB0290284600F02DFB2146009000F0CC
:100A00003DFC0190029900F06DFB834600F0EAFA8C
:100A100006464E4501D300266D1C524639460398C2
:100A200000F072F8781CC1B22A46069B039800F0C9
:100A300049F8B8F1000F12DD781C0699084400F05F
:100A4000FF0B0AA25946039800F05EF80BF1010073
:100A5000C1B243463246039800F034F800BF07B0F5
:100A6000BDE8F08F2D0000002B0000002E000000DC
:100A70002DE9F04781460E4690461F4600241DE0B2
:100A8000381B411E1020FFF732FFB8FBF0F000F0DA
:100A90000F050A2D08DA05F13000C2B23019C1B2D3
:100AA0004846FFF73FFF07E005F13700C2B23019B3
:100AB000C1B24846FFF736FF601CC4B2BC42DFDB60
:100AC000BDE8F0872DE9F04780460E4617461D46E3
:100AD000002415E0281B411E0A20FFF708FFB7FB82
:100AE000F0F00A21B0FBF1F201FB120000F1300935
:100AF0003019C1B24A464046FFF714FF601CC4B229
:100B0000AC42E7DBBDE8F0872DE9F04107460E4631
:100B10001546002407E02A5D3019C1B23846FFF7B8
:100B200001FF601CC4B2285D0028F4D1BDE8F0814B
:100B300010B50446FFF756FE7820FFF725FE00208B
:100B4000FFF722FE2046FFF71FFEFFF765FE10BDF0
:100B500010B50446FFF746FE7820FFF715FE40204B
:100B6000FFF712FE2046FFF70FFEFFF755FE10BD00
:100B70007047000029B1064A92690243044B9A610A
:100B800004E0034A92698243014B9A617047000076
:100B900000100240704710B500F002F810BD0000D0
:100BA0000CB50020019000903348006840F480307C
:100BB0003149086000BF3048006800F40030009000
:100BC0000198401C0190009818B90198B0F5A06FE9
:100BD000F1D12948006800F4003010B101200090E4
:100BE00001E0002000900098012843D123480068CC
:100BF00040F01000214908600846006820F003001A
:100C000008600846006840F0020008601A48406822
:100C1000194948600846406848600846406840F402
:100C2000806048600846406820F47C1048600846B0
:100C3000406840F4E81048600846006840F0807062
:100C4000086000BF0C48006800F000700028F9D070
:100C50000948406820F0030007494860084640689A
:100C600040F00200486000BF0348406800F00C00FC
:100C70000828F9D10CBD00000010024000200240FD
:100C80007047000010B51348006840F0010011499A
:100C9000086008464068104908400E494860084608
:100CA00000680E4908400B4908600846006820F4B7
:100CB000802008600846406820F4FE0048604FF439
:100CC0001F008860FFF767FF4FF00060044908606D
:100CD00010BD0000001002400000FFF8FFFFF6FE0C
:100CE00008ED00E000BFFEE788B0FFF7A9FDFFF7C1
:100CF000CBFB22A201210846FFF706FF7520FFF774
:100D00000EFC1F49087002230846027804210120C6
:100D1000FFF7AEFE30E002A8FFF74AFB022000908A
:100D200003460121029AFFF737FE02200090034696
:100D300001210320039AFFF72FFE022000900346B3
:100D400001210420049AFFF727FE022000900323CC
:100D50000821059AFFF720FE0220009003230821B6
:100D60001846069AFFF718FE022000900323082178
:100D70000420079AFFF710FECDE7000049443A002F
:100D80000000002090EA010F48BF81F0004100F10F
:100D90008682421A3CBF801A89184FEAD0524FF01F
:100DA0007F4C1CEA410FA2EBD15318BF9CEA026FA3
:100DB00000F03B804FF0004C4CEA00204CEA01214F
:100DC00021FA03FC10EB0C0C1ED202F1FF325FEA99
:100DD0001C2040EBC25038BF70471CF07F0F4FEA19
:100DE000400C18BFBCF17F4F38BF7047C3F12003E0
:100DF000994008BF20F00100BCF17F4F38BF704719
:100E0000A0F1C04000F035BA4FEA3C00000A40EBC8
:100E1000C25028BF1CF0FF0F4FEA400CE6D018BFAD
:100E2000BCF17F4F38BF7047EAE79CEA026F05D0FC
:100E300010EA5C0F08BF00F00040704710B500F0EA
:100E4000D2F900BF64FBBE3E401058BFC0F1404025
:100E5000491058BFC1F140418142EFF30080704713
:100E60004FF47F0C1CEAD0121EBF1CEAD11392EA89
:100E70000C0F93EA0C0F00F0858090EA010F48BF39
:100E800042F4807240F4000C41F400002CF07F41E9
:100E900020F07F4000B58142A2EB03020FF2081C54
:100EA000ACEB504EC0F100009EF800E04FEA4E0E51
:100EB00000FB0EFC38BF49004FEA2C1C02F5FA0279
:100EC0000CFB0EF34FEACE1E4FEA112C4FEAC12164
:100ED0000EEB635E42EB22420EFB0CFC4FEA1C530E
:100EE00000FB03114FEA112C4FEA01310EFB0CFC01
:100EF0004FEADC4C00FB0C11C14228BF09184CEB37
:100F000003335DF804EB10EB410143EBC250B2F543
:100F10007C0F38BF704729D512F0F00F1CBF00F1CD
:100F2000C04000F00040704700818283848586873E
:100F300088898B8C8D8E8F919293959697999A9C98
:100F40009D9FA0A2A3A5A7A8AAACAEB0B2B3B5B707
:100F5000B9BCBEC0C2C5C7C9CCCED1D4D7D9DCDFDD
:100F6000E2E6E9ECF0F3F7FAFE0000004FEA400C8D
:100F70000CF1807CBCF17E4F28BF7047B0F1C040BF
:100F800000F077B990EA010F0CEAD11348BF42F4A0
:100F90008072624538BF634507D213F47F0F16D0C5
:100FA00080EA010000F00040704710B500F01BF926
:100FB000097EFC3E00F005B880EA010000F0004028
:100FC000704780EA010000F0004000F052B912F4CE
:100FD0007F0F04BF0248704780EA010000F049B962
:100FE0000000C07FC10DD1F19E0206DB4FEA002355
:100FF00043F0004323FA02F07047004207D54FEA5E
:101000004001B1F1FE4F02D24FF00000704710B521
:1010100000F0E9F849922480002070476FEA200030
:101020007047000010F0004148BF4042B0FA80F322
:1010300010FA03F2C3F19D030BD051EAC35101EB47
:101040001220530638BF704700F1010008BF20F09E
:1010500001007047B0FA80F310FA03F2C3F19D0368
:101060000AD0D90501EB1220530638BF704700F1B2
:10107000010008BF20F001007047000050EA010C99
:1010800000F113801CF5000F58BFBCF5000F01D410
:101090008842704707D710F5000F58BF11F5000FB1
:1010A00015D488427047894270471CF5000F04D55B
:1010B000BCF5000FF7D5814270474FF0807C1CEBE8
:1010C000400F38BF1CEB410F01D28142704710B571
:1010D00000F089F8922449004FF000504FF0805101
:1010E000FFF7B2BE4FF47F0C1CEAD0121EBF1CEA01
:1010F000D11392EA0C0F93EA0C0F00F0478090EAAC
:10110000010F48BF42F480724FF0004C4CEA0020BF
:101110004CEA012102EB0302A0FB0113A2F500023D
:10112000002918BF43F001035B0028BF4FEA3303D7
:1011300042EB22425FEA132C4CEBC2502EBFBCEBB9
:10114000436FB2F57C0F70474FEA036CBCF1004F60
:1011500008BF20F00100B2F57C0F38BF70470BD5F7
:1011600082F0FF0212F5803FC8BF704700F1C04017
:10117000D8BF00F00040704700F5000C5FEA4C0C4F
:1011800048BF7047B0F1C04000F073B890EA010F5B
:101190000CEAD11348BF42F48072624538BF634500
:1011A00004D280EA010000F00040704710B500F062
:1011B0001AF800BF8900013E00F007B800F009B836
:1011C0005FEA410C5FEA1C6C08D080EA010000F085
:1011D00050B85FEA400C5FEA1C6CF6D14FF000405B
:1011E000A0F5800070470EF1020E2EF0030E5EF89F
:1011F000044B244204D44FEA4102B2F17F4F11D88C
:101200004FEA4003B3F17F4F0CD80ED14FEAD07CA8
:10121000B2F17F4F0CEB4C0C0CF1020C08BF4CEB05
:10122000D17C04E04FF0080C01E04FEAD17C0CEBDC
:101230004C0324FA03F404F00704B4F1040C06D2BE
:101240000EEB840CBDE810404CF0010C6047DFE869
:101250000CF0070802024FF00040A0F5800010BD1E
:101260000846420018BFD2F1807288BF00F00040EB
:1012700010BDFF2141EAD050C005704780F000400A
:1012800090EA010F7FF585AD81F0004100F007B8CD
:1012900090EA010F48BF81F000413FF57AAD421A54
:1012A00004D882F00042A0EB020011444FEAD05271
:1012B0004FF07F4C1CEA410FA2EBD15318BF9CEAC0
:1012C000026F4AD04FF0004C4CEA00204CEA01215A
:1012D00021FA03FCB0EB0C0C0FD412F0FE0F36D049
:1012E0005FEA4C001DD5001240EBC25038BF70477A
:1012F0001CF03F0F18BF70470BE0A2F101025FEA3C
:101300001C2040EBC25038BF70471CF07F0F18BF45
:101310007047C3F12003994014BF401E20F0010024
:10132000704780084FEA122308BF7047B0FA80FC6C
:10133000A2EB0C02CCF1280C60FA0CF093EA122F0D
:1013400004BF00EBC25070474FEAC3707047130AE6
:101350005FEADC1008BF7047F6E79CEA026F04D032
:1013600010EA5C0F08BF0020704710B5FFF73BFF85
:1013700040DFF63E81F000407047000000000000B2
:1013800000000000000000000000000000F8000065
:101390000000000000333000000000100C06100CAC
:1013A0000600000000000000000040C07840C07847
:1013B0004000043F04043F040400007088FC08302F
:1013C0000000001820FF211E0000F008F000E018C7
:1013D000000000211C031E211E0000F00888700080
:1013E00000001E2123241927211010160E000000D2
:1013F00000000000000000000000000000E01804F1
:101400000200000000071820400000020418E0005D
:1014100000000040201807000000404080F080409D
:1014200040000202010F01020200000000F0000073
:1014300000000101011F0101010000000000000087
:10144000000080B0700000000000000000000000FC
:101450000000000101010101010100000000000085
:10146000000000303000000000000000000080603C
:101470001804006018060100000000E010080810C1
:10148000E000000F102020100F00001010F80000E6
:1014900000000020203F202000000070080808887D
:1014A000700000302824222130000030088888484D
:1014B00030000018202020110E000000C02010F87D
:1014C000000000070424243F240000F8088888084E
:1014D00008000019212020110E0000E01088881853
:1014E0000000000F112020110E0000380808C83835
:1014F00008000000003F0000000000708808088815
:101500007000001C222121221C0000E0100808109D
:10151000E0000000312222110F00000000C0C000D6
:1015200000000000003030000000000000800000DB
:1015300000000000806000000000000080402010DB
:1015400008000001020408102000404040404040D4
:101550004000040404040404040000081020408037
:10156000000000201008040201000070480808086C
:10157000F0000000003036010000C030C828E8103C
:10158000E0000718272423140B000000C038E000F7
:101590000000203C23020227382008F88888887041
:1015A0000000203F202020110E00C030080808084D
:1015B0003800071820202010080008F80808081034
:1015C000E000203F202020100F0008F88888E8085D
:1015D0001000203F20202320180008F88888E80801
:1015E0001000203F200003000000C0300808083829
:1015F000000007182020221E020008F8080000083A
:10160000F808203F210101213F20000808F80808C0
:1016100000000020203F2020000000000808F808FB
:101620000800C08080807F00000008F888C028186B
:101630000800203F20012638200008F8080000009C
:101640000000203F20202020300008F8F800F8F8A3
:101650000800203F003F003F200008F830C000088D
:10166000F808203F200007183F00E0100808081085
:10167000E0000F10202020100F0008F808080808CC
:10168000F000203F210101010000E01008080810CF
:10169000E0000F18242438504F0008F88888888804
:1016A0007000203F2000030C3020007088080808DC
:1016B00038000038202121221C00180808F80808EA
:1016C00018000000203F2000000008F80800000873
:1016D000F808001F202020201F000878880000C87C
:1016E0003808000007380E010000F80800F800086C
:1016F000F800033C0700073C030008186880806876
:10170000180820302C03032C30200838C800C838B3
:1017100008000000203F2000000010080808C8381A
:1017200008002038262120201800000000FE0202B8
:1017300002000000007F40404000000C30C000006C
:101740000000000000010638C00000020202FE0096
:101750000000004040407F00000000000402020240
:101760000400000000000000000000000000000075
:101770000000808080808080808000020204000061
:101780000000000000000000000000008080808059
:1017900000000019242222223F2008F80080800047
:1017A0000000003F112020110E000000008080800A
:1017B0000000000E11202020110000000080808811
:1017C000F800000E112020103F2000008080808053
:1017D0000000001F222222221300008080F088884F
:1017E00088180020203F202000000000808080809A
:1017F0008000006B94949493600008F800808080CF
:101800000000203F210000203F2000809898000029
:1018100000000020203F2020000000000080989859
:10182000000000C08080807F000008F800008080F9
:101830008000203F24022D302000000808F800001E
:1018400000000020203F20200000808080808080D9
:101850008000203F20003F20003F8080008080806B
:101860000000203F210000203F2000008080808079
:101870000000001F202020201F00808000808000AA
:10188000000080FFA12020110E0000000080808059
:101890008000000E112020A0FF80808080008080CA
:1018A000800020203F2120000100000080808080F7
:1018B00080000033242424241900008080E08080EC
:1018C00000000000001F2020000080800000008039
:1018D0008000001F202020103F208080800000809A
:1018E000808000010E3008060100808000800080AA
:1018F00080800F300C030C300F000080800080804F
:1019000080000020312E0E31200080808000008079
:10191000808080818E701806010000808080808029
:1019200080000021302C2221300000000000807C4B
:10193000020200000000003F404000000000FF00E5
:10194000000000000000FF0000000002027C800098
:1019500000000040403F00000000000601010202BC
:101960000404000000000000000000008C190008C2
:101970000000002004000000280100089019000861
:10198000040000206406000044010008000000007C
:04000005080000ED02
:00000001FF
