:020000040800F2
:10000000600600206D010008D5030008CD0300083C
:10001000D1030008A7020008E5070008000000005F
:10002000000000000000000000000000950600082D
:10003000AB020008000000007106000881070008FC
:100040008701000887010008870100088701000870
:100050008701000887010008870100088701000860
:100060008701000887010008870100088701000850
:100070008701000887010008870100088701000840
:100080008701000887010008870100088701000830
:100090008701000887010008870100088701000820
:1000A0008701000887010008870100088701000810
:1000B0008701000887010008870100088701000800
:1000C00087010008870100088701000887010008F0
:1000D00087010008870100088701000887010008E0
:1000E00087010008870100088701000800F002F876
:1000F00000F02CF80AA090E8000C82448344AAF196
:100100000107DA4501D100F021F8AFF2090EBAE893
:100110000F0013F0010F18BFFB1A43F0010318473B
:1001200008120000181200000023002400250026F9
:10013000103A28BF78C1FBD8520728BF30C148BF4A
:100140000B6070471FB51FBD10B510BD00F071F8F2
:100150001146FFF7F7FF00F047FB00F08FF803B4FC
:10016000FFF7F2FF03BC00F097F800000948804752
:1001700009480047FEE7FEE7FEE7FEE7FEE7FEE789
:10018000FEE7FEE7FEE7FEE704480549054A064BA1
:100190007047000085070008ED000008600000209F
:1001A0006006002060020020600200204FF0013C49
:1001B00050F8042B51F8043B9A4221D1A2EB0C03D6
:1001C000934313EACC1317D150F8042B51F8043B96
:1001D0009A4215D1A2EB0C03934313EACC130BD133
:1001E00050F8042B51F8043B9A4209D1A2EB0C03BE
:1001F000934313EACC13DBD04FF00000704700BFED
:10020000D01A01BAB1FA81F101F0180122FA01F015
:10021000CB40C1F12001DBB2C0B2C01A2CFA01F30D
:10022000D11A914311EAC311E6D170477047704764
:100230007047754600F02CF8AE46050069465346F7
:1002400020F00700854618B020B5FFF79DFFBDE8F8
:1002500020404FF000064FF000074FF000084FF02D
:10026000000B21F00701AC46ACE8C009ACE8C009BE
:10027000ACE8C009ACE8C0098D46704710B504462B
:10028000AFF300802046BDE81040FFF768BF0000D4
:10029000004870470000002001491820ABBEFEE76F
:1002A00026000200704700BFFEE770472DE9F041CD
:1002B000024600250026002000230024002791F894
:1002C00003C00CF00F0591F803C00CF0100CBCF14A
:1002D000000F03D091F802C04CEA050591F800C068
:1002E000BCF1000F31D0146800202BE04FF0010C5E
:1002F0000CFA00F3B1F800C00CEA03069E4220D1CC
:1003000083004FF00F0C0CFA03F7BC4305FA03FC13
:100310004CEA040491F803C0BCF1280F06D14FF059
:10032000010C0CFA00FCC2F814C00AE091F803C0FA
:10033000BCF1480F05D14FF0010C0CFA00FCC2F8DB
:1003400010C0401C0828D1D31460B1F800C0BCF123
:10035000FF0F34DD546800202EE000F1080C4FF050
:10036000010808FA0CF3B1F800C00CEA03069E423B
:1003700021D183004FF00F0C0CFA03F7BC4305FAB0
:1003800003FC4CEA040491F803C0BCF1280F05D12A
:1003900000F1080C08FA0CF8C2F8148091F803C0B8
:1003A000BCF1480F07D100F1080C4FF0010808FA22
:1003B0000CF8C2F81080401C0828CED35460BDE869
:1003C000F0810AB1016100E04161704700BFFEE7C2
:1003D00000BFFEE7704770B500240EE00021204604
:1003E00000F088F8002504E0002000F031F9681CD6
:1003F000C5B2802DF8DB601CC4B2082CEEDB70BDEA
:1004000038B5002406E0002500E06D1CB5F57A7FC4
:10041000FBD3641CB4F57A7FF5D30121082000F0EA
:1004200029F914208DF8030003208DF802004FF401
:100430008070ADF8000069460848FFF737FF4FF4B9
:100440000070ADF8000069460448FFF72FFF012057
:1004500000F0D6F8012000F0DFF838BD000C0140B4
:1004600070B50546002411E080212141294009B1E1
:10047000012100E00021084600F0CEF8012000F044
:10048000BFF8002000F0BCF8601CC4B2082CEBDB05
:10049000012000F0B5F8002000F0B2F870BD10B5F2
:1004A000012000F0B9F8012000F0AAF8002000F0C7
:1004B000B3F8002000F0A4F810BD10B5002000F043
:1004C000ABF8012000F09CF8012000F0A5F810BD69
:1004D00010B5FFF795FF002405E00549085D00F021
:1004E000A7F8601CC4B2172CF7D3FFF774FF10BD38
:1004F0002808000870B505460C4645F0B00000F02D
:1005000097F8102141EA141000F092F804F00F005F
:1005100000F08EF870BD00002DE9FC4781460F46C3
:1005200015460020019080460024002636E0AA5D92
:100530004046411C01F0FF0801A90A54B8F1030F1D
:100540002AD14FF0000800241BE004EBC401164A36
:1005500002EB810001A9FFF729FE80B904EBC4007A
:10056000114901EB8000001D10231A463946009006
:10057000484600F01DF807F11000C7B20BE0601C00
:10058000C4B204EBC401084A02EB810007A1FFF7E3
:100590000DFE0028D9D100BF701CC6B2A85D00288E
:1005A000C5D1BDE8FC8700006910000830000000DC
:1005B0002DE9F05F8046894616461C46DDF828A0E6
:1005C0002046E11704EB5171C1F3C70B002513E07E
:1005D00008EB0501C8B24946FFF78CFF002707E08A
:1005E00005FB06711AF8010000F032F8781CC7B25A
:1005F000B742F5DB681CC5B25D45E9DBBDE8F09F9D
:1006000010B5044622464FF480710248FFF7D9FE28
:1006100010BD0000000C014010B5044622464FF406
:1006200000710248FFF7CDFE10BD0000000C014034
:1006300010B50446FFF733FF7820FFF711FF0020C5
:10064000FFF70EFF2046FFF70BFFFFF736FF10BD49
:1006500010B50446FFF723FF7820FFF701FF402085
:10066000FFF7FEFE2046FFF7FBFEFFF726FF10BD5B
:100670007047000029B1064A92690243044B9A610F
:1006800004E0034A92698243014B9A61704700007B
:1006900000100240704710B500F002F810BD0000D5
:1006A0000CB50020019000903348006840F4803081
:1006B0003149086000BF3048006800F40030009005
:1006C0000198401C0190009818B90198B0F5A06FEE
:1006D000F1D12948006800F4003010B101200090E9
:1006E00001E0002000900098012843D123480068D1
:1006F00040F01000214908600846006820F003001F
:1007000008600846006840F0020008601A48406827
:10071000194948600846406848600846406840F407
:10072000806048600846406820F47C1048600846B5
:10073000406840F4E81048600846006840F0807067
:10074000086000BF0C48006800F000700028F9D075
:100750000948406820F0030007494860084640689F
:1007600040F00200486000BF0348406800F00C0001
:100770000828F9D10CBD0000001002400020024002
:100780007047000010B51348006840F0010011499F
:10079000086008464068104908400E49486008460D
:1007A00000680E4908400B4908600846006820F4BC
:1007B000802008600846406820F4FE0048604FF43E
:1007C0001F008860FFF767FF4FF000600449086072
:1007D00010BD0000001002400000FFF8FFFFF6FE11
:1007E00008ED00E000BFFEE708B5FFF771FEFFF778
:1007F000F2FD07A200210846FFF78EFE09482023DC
:100800001A46302100900220FFF7D2FE00BFFEE71B
:10081000E8B4BAE6A08BE788B1E8928BE99D99E647
:1008200080A10000A5120008AED580A83FD30040EB
:10083000A1C8DA1281CFD9F1DB30A4A68D14AF00A4
:1008400000000000000000000000000000000000A8
:100850000000F8000000000000003330000000003D
:10086000160E00160E000000000000000000004000
:10087000C07840C0784000043F04043F04040000F6
:100880007088FC08300000001820FF211E0000F0D6
:1008900008F000E018000000211C031E211E0000CB
:1008A000F00888700000001E212324192721100061
:1008B0000000160E00000000000000000000000014
:1008C0000000E018040200000000071820400000AB
:1008D000020418E00000000040201807000000405B
:1008E0004080F0804040000202010F01020200003F
:1008F0000000F0000000000101011F0101010000E3
:100900000000000000000000B070000000000000C7
:1009100000000000000000000101010101010100D0
:100920000000000000000000303000000000000067
:10093000000000806018040060180601000000003C
:10094000E010080810E000000F102020100F000039
:100950001010F8000000000020203F2020000000C0
:100960007008080888700000302824222130000018
:10097000300888884830000018202020110E000020
:1009800000C02010F8000000070424243F240000C9
:10099000F80888880808000019212020110E00009E
:1009A000E0108888180000000F112020110E0000B0
:1009B000380808C83808000000003F0000000000A8
:1009C00070880808887000001C222121221C000069
:1009D000E010080810E0000000312222110F000092
:1009E0000000C0C000000000000030300000000027
:1009F0000000C0C0000000000080B07000000000D7
:100A0000008040201008000001020408102000406F
:100A1000404040404040000404040404040400003A
:100A2000081020408000000020100804020100008F
:100A30007048080808F0000000003036010000C0CF
:100A400030C828E810E0000718272423140B000002
:100A500000C038E0000000203C23020227382008B4
:100A6000F8888888700000203F202020110E00C0E8
:100A7000300808080838000718202020100800084F
:100A8000F808080810E000203F202020100F000880
:100A9000F88888E8081000203F202023201800084C
:100AA000F88888E8081000203F200003000000C0FC
:100AB0003008080838000007182020221E0200080D
:100AC000F808000008F808203F210101213F20001C
:100AD0000808F8080800000020203F20200000003F
:100AE000000808F8080800C08080807F0000000827
:100AF000F888C028180800203F2001263820000868
:100B0000F8080000000000203F20202020300008CE
:100B1000F8F800F8F80800203F003F003F200008E8
:100B2000F830C00008F808203F200007183F00E018
:100B30001008080810E0000F10202020100F0008F7
:100B4000F808080808F000203F210101010000E03A
:100B50001008080810E0000F18242438504F00082F
:100B6000F8888888887000203F2000030C3020001F
:100B7000708808080838000038202121221C00183D
:100B80000808F8080818000000203F2000000008AE
:100B9000F808000008F808001F202020201F000887
:100BA00078880000C83808000007380E010000F8F7
:100BB0000800F80008F800033C0700073C030008A1
:100BC0001868808068180820302C03032C30200817
:100BD00038C800C83808000000203F20000000107E
:100BE000080808C8380800203826212020180000EE
:100BF0000000FE020202000000007F4040400000B2
:100C00000C30C000000000000000010638C00000E9
:100C1000020202FE000000004040407F0000000091
:100C20002010080408102000000000000000000050
:100C300000000000000000808080808080808000B4
:100C40000204080000000000000000000000000096
:100C5000008080808000000019242222223F20088A
:100C6000F8008080000000003F112020110E0000DD
:100C700000008080800000000E1120202011000064
:100C80000000808088F800000E112020103F200016
:100C900000808080800000001F222222221300009A
:100CA0008080F0888888180020203F2020000000E5
:100CB00000808080808000006B9494949360000892
:100CC000F8008080800000203F210000203F2000AD
:100CD000809898000000000020203F2020000000A5
:100CE0000000809898000000C08080807F0000088D
:100CF000F8000080808000203F24022D302000007A
:100D00000808F8000000000020203F20200000809C
:100D100080808080808000203F20003F20003F00B6
:100D20008080008080000000203F2100203F2000C4
:100D300000808080800000001F202020201F008075
:100D40008000808000000080FFA12020110E0000A4
:100D500000008080808000000E112020A0FF808095
:100D60008080008080800020203F21200001000042
:100D70000080808080800000332424242419000017
:100D80008080E0808000000000001F2020000080A4
:100D900080000000808000001F202020103F208065
:100DA0008080000080808000010E300806010080F5
:100DB000800080008080800F300C030C300F00001A
:100DC000808000808080000020312E0E3120008045
:100DD0008080000080808080818E70180601000075
:100DE000808080808080000021302C222130000013
:100DF000000000807C020200000000003F40400034
:100E0000000000FF00000000000000FF00000000E4
:100E100002027C800000000040403F000000000013
:100E200080404080000080000000000001010000C0
:100E300000000000000000002F0000000007000775
:100E40000000147F147F1400242A7F2A1200231329
:100E50000864620036495522500000000700000077
:100E6000001C224100000041221C000014083E0822
:100E7000140008083E0808000000A06000000808F0
:100E8000080808000060600000002010080402004C
:100E90003E5149453E0000427F40000042615149B9
:100EA00046002141454B31001814127F10002745A0
:100EB000454539003C4A49493000017109050300A4
:100EC000364949493600064949291E000036360090
:100ED00000000056360000000814224100001414DF
:100EE00014141400004122140800020151090600E4
:100EF0003E4955592E007C1211127C007F49494908
:100F000036003E41414122007F4141221C007F4981
:100F1000494941007F09090901003E4149497A00D8
:100F20007F0808087F0000417F4100002040413FCA
:100F300001007F08142241007F40404040007F02B2
:100F40000C027F007F0408107F003E4141413E00BB
:100F50007F09090906003E4151215E007F091929D8
:100F6000460046494949310001017F0101003F40E7
:100F700040403F001F2040201F003F4038403F00BE
:100F8000631408146300070870080700615149459D
:100F90004300007F4141000002040810200000418E
:100FA000417F000004020102040040404040400034
:100FB0000001020400002054545478007F48444447
:100FC0003800384444442000384444487F003854B2
:100FD00054541800087E0901020018A4A4A47C003F
:100FE0007F080404780000447D4000004080847D38
:100FF00000007F102844000000417F4000007C0476
:10100000180478007C08040478003844444438000C
:10101000FC242424180018242418FC007C08040450
:101020000800485454542000043F444020003C40F1
:1010300040207C001C2040201C003C4030403C00F4
:101040004428102844001CA0A0A07C004464544CF8
:10105000440000087F41000000007F0000000041C4
:101060007F0800000804081008EFBC8C0000000096
:101070000000000000000000000000000000005818
:1010800038000000000000000000000000E3808243
:101090000000000000000000000000000000000050
:1010A00000000018242418000000000000000000C8
:1010B00000E4BDA000008060F8074020180F08C8B9
:1010C0000808281800010000FF00100C0340807F72
:1010D0000001061800E5A5BD001010F01F10F0007B
:1010E000808282E2928A8680004022150816610082
:1010F0000040807F0000000000E4B896002020201F
:10110000FE2020FF202020FF2020202000000000C3
:101110007F404047444444474040400000E7958CAE
:1011200000000000FE929292FE929292FE00000059
:101130000008080484621E010001FE02040408087D
:1011400000E688910020242424FE23222020FF2072
:10115000222CA02000000848847F02414020130C6C
:10116000142241F800E788B10080642C342424EC78
:10117000322222322E23A260000041219189874D24
:10118000552525554D81808000E4BDA0000080607C
:10119000F8074020180F08C80808281800010000A8
:1011A000FF00100C0340807F0001061800E8928BBE
:1011B0000004448404EF048444B424AF642404048D
:1011C0000020100904FF00040C360584FF04040409
:1011D00000E99D99004454547F545444202827E446
:1011E000342CE0000000FF1555957F000949897FE8
:1011F00009091F0100E680A100807000FF0810406F
:1012000060504C43405060C000000000FF000000F0
:10121000FE4242424242FE0000E8B4BA008044343A
:101220008FA4C4BC8080BCA4A4243C0000008080A7
:101230005F4020100E2020405F80000000E6A08B61
:10124000001010D0FF90088868180FE808080808F8
:1012500000040300FF0021110D41817F01050930C9
:101260000000000000FF010101310909090989712D
:1012700001010101FFFF8080808080809681808055
:1012800080808080FFFF01818181FD8991A1C1FD66
:1012900081818101FFFF808080809F888482819F7F
:1012A00080808080FF00000000000000000000003F
:1012B00000000000000000000000E0FF3F00E0FF31
:1012C0003F00E0FF3F00F0FF1F00F8FF0F00FCFFB2
:1012D0000700FEFF0300FFFF01E0FFFF00E0FFFF4C
:1012E00000E0FFFF00E0FFFF00E0FFFF00E0FFFF86
:1012F00000E0FFFF0000FFFF0100FEFF0300FCFF16
:101300000700F8FF0F00F0FF1F00E0FF3F00E0FFC5
:101310003F00E0FF3F000000000000000000000070
:10132000000000000000000038130008000000204A
:0813300060060000280100081E
:04000005080000ED02
:00000001FF
